{
	"_format": "hh-sol-artifact-1",
	"contractName": "RewardToken",
	"sourceName": "contracts/RewardToken/RewardToken.sol",
	"abi": [
		{
			"inputs": [
				{
					"internalType": "string",
					"name": "name",
					"type": "string"
				},
				{
					"internalType": "string",
					"name": "symbol",
					"type": "string"
				},
				{
					"internalType": "address",
					"name": "tradeHubAddress",
					"type": "address"
				},
				{
					"internalType": "address",
					"name": "accessControlAddress",
					"type": "address"
				},
				{
					"internalType": "address",
					"name": "_tokenAddr",
					"type": "address"
				},
				{
					"internalType": "uint256[]",
					"name": "contractDetails",
					"type": "uint256[]"
				},
				{
					"internalType": "string",
					"name": "_baseUri",
					"type": "string"
				}
			],
			"stateMutability": "nonpayable",
			"type": "constructor"
		},
		{
			"inputs": [],
			"name": "ApprovalCallerNotOwnerNorApproved",
			"type": "error"
		},
		{
			"inputs": [],
			"name": "ApprovalQueryForNonexistentToken",
			"type": "error"
		},
		{
			"inputs": [],
			"name": "BalanceQueryForZeroAddress",
			"type": "error"
		},
		{
			"inputs": [
				{
					"internalType": "uint256",
					"name": "numerator",
					"type": "uint256"
				},
				{
					"internalType": "uint256",
					"name": "denominator",
					"type": "uint256"
				}
			],
			"name": "ERC2981InvalidDefaultRoyalty",
			"type": "error"
		},
		{
			"inputs": [
				{
					"internalType": "address",
					"name": "receiver",
					"type": "address"
				}
			],
			"name": "ERC2981InvalidDefaultRoyaltyReceiver",
			"type": "error"
		},
		{
			"inputs": [
				{
					"internalType": "uint256",
					"name": "tokenId",
					"type": "uint256"
				},
				{
					"internalType": "uint256",
					"name": "numerator",
					"type": "uint256"
				},
				{
					"internalType": "uint256",
					"name": "denominator",
					"type": "uint256"
				}
			],
			"name": "ERC2981InvalidTokenRoyalty",
			"type": "error"
		},
		{
			"inputs": [
				{
					"internalType": "uint256",
					"name": "tokenId",
					"type": "uint256"
				},
				{
					"internalType": "address",
					"name": "receiver",
					"type": "address"
				}
			],
			"name": "ERC2981InvalidTokenRoyaltyReceiver",
			"type": "error"
		},
		{
			"inputs": [],
			"name": "MintERC2309QuantityExceedsLimit",
			"type": "error"
		},
		{
			"inputs": [],
			"name": "MintToZeroAddress",
			"type": "error"
		},
		{
			"inputs": [],
			"name": "MintZeroQuantity",
			"type": "error"
		},
		{
			"inputs": [],
			"name": "OwnerQueryForNonexistentToken",
			"type": "error"
		},
		{
			"inputs": [],
			"name": "OwnershipNotInitializedForExtraData",
			"type": "error"
		},
		{
			"inputs": [],
			"name": "TransferCallerNotOwnerNorApproved",
			"type": "error"
		},
		{
			"inputs": [],
			"name": "TransferFromIncorrectOwner",
			"type": "error"
		},
		{
			"inputs": [],
			"name": "TransferToNonERC721ReceiverImplementer",
			"type": "error"
		},
		{
			"inputs": [],
			"name": "TransferToZeroAddress",
			"type": "error"
		},
		{
			"inputs": [],
			"name": "URIQueryForNonexistentToken",
			"type": "error"
		},
		{
			"anonymous": false,
			"inputs": [
				{
					"indexed": true,
					"internalType": "address",
					"name": "owner",
					"type": "address"
				},
				{
					"indexed": true,
					"internalType": "address",
					"name": "approved",
					"type": "address"
				},
				{
					"indexed": true,
					"internalType": "uint256",
					"name": "tokenId",
					"type": "uint256"
				}
			],
			"name": "Approval",
			"type": "event"
		},
		{
			"anonymous": false,
			"inputs": [
				{
					"indexed": true,
					"internalType": "address",
					"name": "owner",
					"type": "address"
				},
				{
					"indexed": true,
					"internalType": "address",
					"name": "operator",
					"type": "address"
				},
				{
					"indexed": false,
					"internalType": "bool",
					"name": "approved",
					"type": "bool"
				}
			],
			"name": "ApprovalForAll",
			"type": "event"
		},
		{
			"anonymous": false,
			"inputs": [
				{
					"indexed": false,
					"internalType": "address",
					"name": "user",
					"type": "address"
				},
				{
					"indexed": false,
					"internalType": "uint256",
					"name": "tokenId",
					"type": "uint256"
				},
				{
					"indexed": false,
					"internalType": "bytes",
					"name": "uuid",
					"type": "bytes"
				},
				{
					"indexed": false,
					"internalType": "uint256",
					"name": "time",
					"type": "uint256"
				}
			],
			"name": "AssetRegistered",
			"type": "event"
		},
		{
			"anonymous": false,
			"inputs": [
				{
					"indexed": true,
					"internalType": "uint256",
					"name": "fromTokenId",
					"type": "uint256"
				},
				{
					"indexed": false,
					"internalType": "uint256",
					"name": "toTokenId",
					"type": "uint256"
				},
				{
					"indexed": true,
					"internalType": "address",
					"name": "from",
					"type": "address"
				},
				{
					"indexed": true,
					"internalType": "address",
					"name": "to",
					"type": "address"
				}
			],
			"name": "ConsecutiveTransfer",
			"type": "event"
		},
		{
			"anonymous": false,
			"inputs": [
				{
					"indexed": false,
					"internalType": "address",
					"name": "sender",
					"type": "address"
				},
				{
					"indexed": false,
					"internalType": "address",
					"name": "reciepient",
					"type": "address"
				},
				{
					"indexed": false,
					"internalType": "uint256",
					"name": "amount",
					"type": "uint256"
				}
			],
			"name": "FundTransferred",
			"type": "event"
		},
		{
			"anonymous": false,
			"inputs": [
				{
					"indexed": false,
					"internalType": "uint256",
					"name": "currentIndex",
					"type": "uint256"
				},
				{
					"indexed": false,
					"internalType": "uint256",
					"name": "quantity",
					"type": "uint256"
				},
				{
					"indexed": true,
					"internalType": "address",
					"name": "creator",
					"type": "address"
				}
			],
			"name": "PhygitalAAssetCreated",
			"type": "event"
		},
		{
			"anonymous": false,
			"inputs": [
				{
					"indexed": true,
					"internalType": "uint256",
					"name": "tokenId",
					"type": "uint256"
				},
				{
					"indexed": false,
					"internalType": "address",
					"name": "ownerOrApproved",
					"type": "address"
				}
			],
			"name": "PhygitalAAssetDestroyed",
			"type": "event"
		},
		{
			"anonymous": false,
			"inputs": [
				{
					"indexed": true,
					"internalType": "address",
					"name": "from",
					"type": "address"
				},
				{
					"indexed": true,
					"internalType": "address",
					"name": "to",
					"type": "address"
				},
				{
					"indexed": true,
					"internalType": "uint256",
					"name": "tokenId",
					"type": "uint256"
				}
			],
			"name": "Transfer",
			"type": "event"
		},
		{
			"anonymous": false,
			"inputs": [
				{
					"indexed": false,
					"internalType": "address",
					"name": "user",
					"type": "address"
				},
				{
					"indexed": false,
					"internalType": "uint256",
					"name": "updatedMaxMint",
					"type": "uint256"
				}
			],
			"name": "UpdateAssetMaxMint",
			"type": "event"
		},
		{
			"anonymous": false,
			"inputs": [
				{
					"indexed": false,
					"internalType": "address",
					"name": "user",
					"type": "address"
				},
				{
					"indexed": false,
					"internalType": "uint256",
					"name": "updatedPrice",
					"type": "uint256"
				}
			],
			"name": "UpdateAssetPrice",
			"type": "event"
		},
		{
			"anonymous": false,
			"inputs": [
				{
					"indexed": false,
					"internalType": "address",
					"name": "user",
					"type": "address"
				},
				{
					"indexed": false,
					"internalType": "uint256",
					"name": "tokenId",
					"type": "uint256"
				},
				{
					"indexed": false,
					"internalType": "enum PhygitalAG.ItemStatus",
					"name": "assetStatus",
					"type": "uint8"
				},
				{
					"indexed": false,
					"internalType": "uint256",
					"name": "time",
					"type": "uint256"
				}
			],
			"name": "UpdateAssetStatus",
			"type": "event"
		},
		{
			"inputs": [],
			"name": "accessMasterAddress",
			"outputs": [
				{
					"internalType": "address",
					"name": "",
					"type": "address"
				}
			],
			"stateMutability": "view",
			"type": "function"
		},
		{
			"inputs": [
				{
					"internalType": "address",
					"name": "to",
					"type": "address"
				},
				{
					"internalType": "uint256",
					"name": "tokenId",
					"type": "uint256"
				}
			],
			"name": "approve",
			"outputs": [],
			"stateMutability": "payable",
			"type": "function"
		},
		{
			"inputs": [
				{
					"internalType": "address",
					"name": "owner",
					"type": "address"
				}
			],
			"name": "balanceOf",
			"outputs": [
				{
					"internalType": "uint256",
					"name": "",
					"type": "uint256"
				}
			],
			"stateMutability": "view",
			"type": "function"
		},
		{
			"inputs": [
				{
					"internalType": "uint256",
					"name": "tokenId",
					"type": "uint256"
				}
			],
			"name": "burn",
			"outputs": [],
			"stateMutability": "nonpayable",
			"type": "function"
		},
		{
			"inputs": [
				{
					"internalType": "uint256",
					"name": "tokenId",
					"type": "uint256"
				}
			],
			"name": "burnAsset",
			"outputs": [],
			"stateMutability": "nonpayable",
			"type": "function"
		},
		{
			"inputs": [
				{
					"internalType": "uint256",
					"name": "quantity",
					"type": "uint256"
				}
			],
			"name": "calculateRequiredPrice",
			"outputs": [
				{
					"internalType": "uint256",
					"name": "amount",
					"type": "uint256"
				}
			],
			"stateMutability": "view",
			"type": "function"
		},
		{
			"inputs": [
				{
					"internalType": "address",
					"name": "reciever",
					"type": "address"
				},
				{
					"internalType": "uint256",
					"name": "quantity",
					"type": "uint256"
				}
			],
			"name": "delegateMint",
			"outputs": [
				{
					"internalType": "uint256",
					"name": "",
					"type": "uint256"
				},
				{
					"internalType": "uint256",
					"name": "",
					"type": "uint256"
				}
			],
			"stateMutability": "nonpayable",
			"type": "function"
		},
		{
			"inputs": [
				{
					"internalType": "uint256",
					"name": "tokenId",
					"type": "uint256"
				}
			],
			"name": "getApproved",
			"outputs": [
				{
					"internalType": "address",
					"name": "",
					"type": "address"
				}
			],
			"stateMutability": "view",
			"type": "function"
		},
		{
			"inputs": [
				{
					"internalType": "address",
					"name": "owner",
					"type": "address"
				},
				{
					"internalType": "address",
					"name": "operator",
					"type": "address"
				}
			],
			"name": "isApprovedForAll",
			"outputs": [
				{
					"internalType": "bool",
					"name": "",
					"type": "bool"
				}
			],
			"stateMutability": "view",
			"type": "function"
		},
		{
			"inputs": [],
			"name": "isRevealed",
			"outputs": [
				{
					"internalType": "bool",
					"name": "",
					"type": "bool"
				}
			],
			"stateMutability": "view",
			"type": "function"
		},
		{
			"inputs": [],
			"name": "maxMint",
			"outputs": [
				{
					"internalType": "uint16",
					"name": "",
					"type": "uint16"
				}
			],
			"stateMutability": "view",
			"type": "function"
		},
		{
			"inputs": [],
			"name": "maxSupply",
			"outputs": [
				{
					"internalType": "uint256",
					"name": "",
					"type": "uint256"
				}
			],
			"stateMutability": "view",
			"type": "function"
		},
		{
			"inputs": [
				{
					"internalType": "uint256",
					"name": "quantity",
					"type": "uint256"
				},
				{
					"internalType": "address",
					"name": "user",
					"type": "address"
				}
			],
			"name": "mint",
			"outputs": [
				{
					"internalType": "uint256",
					"name": "",
					"type": "uint256"
				},
				{
					"internalType": "uint256",
					"name": "",
					"type": "uint256"
				}
			],
			"stateMutability": "payable",
			"type": "function"
		},
		{
			"inputs": [],
			"name": "name",
			"outputs": [
				{
					"internalType": "string",
					"name": "",
					"type": "string"
				}
			],
			"stateMutability": "view",
			"type": "function"
		},
		{
			"inputs": [],
			"name": "nftPrice",
			"outputs": [
				{
					"internalType": "uint256",
					"name": "",
					"type": "uint256"
				}
			],
			"stateMutability": "view",
			"type": "function"
		},
		{
			"inputs": [
				{
					"internalType": "uint256",
					"name": "tokenId",
					"type": "uint256"
				}
			],
			"name": "ownerOf",
			"outputs": [
				{
					"internalType": "address",
					"name": "",
					"type": "address"
				}
			],
			"stateMutability": "view",
			"type": "function"
		},
		{
			"inputs": [
				{
					"internalType": "uint256",
					"name": "",
					"type": "uint256"
				}
			],
			"name": "phygitalAssets",
			"outputs": [
				{
					"internalType": "uint256",
					"name": "registerTime",
					"type": "uint256"
				},
				{
					"internalType": "bytes",
					"name": "phygitalId",
					"type": "bytes"
				},
				{
					"internalType": "enum PhygitalAG.ItemStatus",
					"name": "status",
					"type": "uint8"
				}
			],
			"stateMutability": "view",
			"type": "function"
		},
		{
			"inputs": [
				{
					"internalType": "bytes",
					"name": "",
					"type": "bytes"
				}
			],
			"name": "phygitalIdCheck",
			"outputs": [
				{
					"internalType": "bool",
					"name": "",
					"type": "bool"
				}
			],
			"stateMutability": "view",
			"type": "function"
		},
		{
			"inputs": [
				{
					"internalType": "uint256",
					"name": "tokenId",
					"type": "uint256"
				},
				{
					"internalType": "bytes",
					"name": "_phygitalID",
					"type": "bytes"
				}
			],
			"name": "registerAssetId",
			"outputs": [],
			"stateMutability": "nonpayable",
			"type": "function"
		},
		{
			"inputs": [
				{
					"internalType": "uint256",
					"name": "",
					"type": "uint256"
				}
			],
			"name": "rentables",
			"outputs": [
				{
					"internalType": "bool",
					"name": "isRentable",
					"type": "bool"
				},
				{
					"internalType": "address",
					"name": "user",
					"type": "address"
				},
				{
					"internalType": "uint64",
					"name": "expires",
					"type": "uint64"
				},
				{
					"internalType": "uint256",
					"name": "hourlyRate",
					"type": "uint256"
				}
			],
			"stateMutability": "view",
			"type": "function"
		},
		{
			"inputs": [
				{
					"internalType": "string",
					"name": "uri",
					"type": "string"
				}
			],
			"name": "reveal",
			"outputs": [],
			"stateMutability": "nonpayable",
			"type": "function"
		},
		{
			"inputs": [
				{
					"internalType": "uint256",
					"name": "tokenId",
					"type": "uint256"
				},
				{
					"internalType": "uint256",
					"name": "salePrice",
					"type": "uint256"
				}
			],
			"name": "royaltyInfo",
			"outputs": [
				{
					"internalType": "address",
					"name": "",
					"type": "address"
				},
				{
					"internalType": "uint256",
					"name": "",
					"type": "uint256"
				}
			],
			"stateMutability": "view",
			"type": "function"
		},
		{
			"inputs": [
				{
					"internalType": "address",
					"name": "from",
					"type": "address"
				},
				{
					"internalType": "address",
					"name": "to",
					"type": "address"
				},
				{
					"internalType": "uint256",
					"name": "tokenId",
					"type": "uint256"
				}
			],
			"name": "safeTransferFrom",
			"outputs": [],
			"stateMutability": "payable",
			"type": "function"
		},
		{
			"inputs": [
				{
					"internalType": "address",
					"name": "from",
					"type": "address"
				},
				{
					"internalType": "address",
					"name": "to",
					"type": "address"
				},
				{
					"internalType": "uint256",
					"name": "tokenId",
					"type": "uint256"
				},
				{
					"internalType": "bytes",
					"name": "_data",
					"type": "bytes"
				}
			],
			"name": "safeTransferFrom",
			"outputs": [],
			"stateMutability": "payable",
			"type": "function"
		},
		{
			"inputs": [
				{
					"internalType": "address",
					"name": "operator",
					"type": "address"
				},
				{
					"internalType": "bool",
					"name": "approved",
					"type": "bool"
				}
			],
			"name": "setApprovalForAll",
			"outputs": [],
			"stateMutability": "nonpayable",
			"type": "function"
		},
		{
			"inputs": [
				{
					"internalType": "uint256",
					"name": "tokenId",
					"type": "uint256"
				},
				{
					"internalType": "enum PhygitalAG.ItemStatus",
					"name": "_status",
					"type": "uint8"
				}
			],
			"name": "setItemStatus",
			"outputs": [],
			"stateMutability": "nonpayable",
			"type": "function"
		},
		{
			"inputs": [
				{
					"internalType": "uint16",
					"name": "amount",
					"type": "uint16"
				}
			],
			"name": "setMaxMint",
			"outputs": [],
			"stateMutability": "nonpayable",
			"type": "function"
		},
		{
			"inputs": [
				{
					"internalType": "uint256",
					"name": "amount",
					"type": "uint256"
				}
			],
			"name": "setNFTPrice",
			"outputs": [],
			"stateMutability": "nonpayable",
			"type": "function"
		},
		{
			"inputs": [
				{
					"internalType": "bytes4",
					"name": "interfaceId",
					"type": "bytes4"
				}
			],
			"name": "supportsInterface",
			"outputs": [
				{
					"internalType": "bool",
					"name": "",
					"type": "bool"
				}
			],
			"stateMutability": "view",
			"type": "function"
		},
		{
			"inputs": [],
			"name": "symbol",
			"outputs": [
				{
					"internalType": "string",
					"name": "",
					"type": "string"
				}
			],
			"stateMutability": "view",
			"type": "function"
		},
		{
			"inputs": [
				{
					"internalType": "uint256",
					"name": "tokenId",
					"type": "uint256"
				}
			],
			"name": "tokenURI",
			"outputs": [
				{
					"internalType": "string",
					"name": "",
					"type": "string"
				}
			],
			"stateMutability": "view",
			"type": "function"
		},
		{
			"inputs": [],
			"name": "totalSupply",
			"outputs": [
				{
					"internalType": "uint256",
					"name": "",
					"type": "uint256"
				}
			],
			"stateMutability": "view",
			"type": "function"
		},
		{
			"inputs": [],
			"name": "tradeHub",
			"outputs": [
				{
					"internalType": "address",
					"name": "",
					"type": "address"
				}
			],
			"stateMutability": "view",
			"type": "function"
		},
		{
			"inputs": [
				{
					"internalType": "address",
					"name": "from",
					"type": "address"
				},
				{
					"internalType": "address",
					"name": "to",
					"type": "address"
				},
				{
					"internalType": "uint256",
					"name": "tokenId",
					"type": "uint256"
				}
			],
			"name": "transferFrom",
			"outputs": [],
			"stateMutability": "payable",
			"type": "function"
		},
		{
			"inputs": [
				{
					"internalType": "address",
					"name": "",
					"type": "address"
				}
			],
			"name": "userBalance",
			"outputs": [
				{
					"internalType": "uint256",
					"name": "",
					"type": "uint256"
				}
			],
			"stateMutability": "view",
			"type": "function"
		},
		{
			"inputs": [],
			"name": "version",
			"outputs": [
				{
					"internalType": "uint8",
					"name": "",
					"type": "uint8"
				}
			],
			"stateMutability": "view",
			"type": "function"
		},
		{
			"inputs": [],
			"name": "withdraw",
			"outputs": [],
			"stateMutability": "nonpayable",
			"type": "function"
		}
	],
	"bytecode": "0x60806040526004361061021a5760003560e01c806370a08231116101235780639874cd97116100ab578063c87b56dd1161006f578063c87b56dd146106ee578063d5abeb011461070e578063e461c9b614610742578063e985e9c514610762578063f0f7d05d1461078257600080fd5b80639874cd97146105e1578063a22cb46514610675578063a4b1105214610695578063b88d4fde146106bb578063c2962bc7146106ce57600080fd5b8063882f08f3116100f2578063882f08f31461053e5780638c38431e146105795780638f08d44d1461059957806394bf804d146105b957806395d89b41146105cc57600080fd5b806370a08231146104a15780637501f741146104c15780637db79427146104ef57806381530b681461051e57600080fd5b806323b872dd116101a657806342966c681161017557806342966c68146104005780634c2612471461042057806354214f691461044057806354fd4d501461045a5780636352211e1461048157600080fd5b806323b872dd146103865780632a55205a146103995780633ccfd60b146103d857806342842e0e146103ed57600080fd5b8063081812fc116101ed578063081812fc146102e6578063095ea7b31461031e5780630aa7c854146103335780630d39fc811461035357806318160ddd1461036957600080fd5b80630103c92b1461021f57806301ffc9a71461025f578063049d01531461028f57806306fdde03146102c4575b600080fd5b34801561022b57600080fd5b5061024c61023a366004611d0f565b60136020526000908152604090205481565b6040519081526020015b60405180910390f35b34801561026b57600080fd5b5061027f61027a366004611d40565b6107a2565b6040519015158152602001610256565b34801561029b57600080fd5b506102af6102aa366004611d5d565b6107d3565b60408051928352602083019190915201610256565b3480156102d057600080fd5b506102d9610a11565b6040516102569190611dd7565b3480156102f257600080fd5b50610306610301366004611dea565b610aa3565b6040516001600160a01b039091168152602001610256565b61033161032c366004611d5d565b610ade565b005b34801561033f57600080fd5b50600e54610306906001600160a01b031681565b34801561035f57600080fd5b5061024c600c5481565b34801561037557600080fd5b50600354600254036000190161024c565b610331610394366004611e03565b610aee565b3480156103a557600080fd5b506103b96103b4366004611e3f565b610c5d565b604080516001600160a01b039093168352602083019190915201610256565b3480156103e457600080fd5b50610331610d09565b6103316103fb366004611e03565b610d38565b34801561040c57600080fd5b5061033161041b366004611dea565b610d58565b34801561042c57600080fd5b5061033161043b366004611eed565b610d63565b34801561044c57600080fd5b50600b5461027f9060ff1681565b34801561046657600080fd5b5061046f600181565b60405160ff9091168152602001610256565b34801561048d57600080fd5b5061030661049c366004611dea565b610d7c565b3480156104ad57600080fd5b5061024c6104bc366004611d0f565b610d87565b3480156104cd57600080fd5b50600d546104dc9061ffff1681565b60405161ffff9091168152602001610256565b3480156104fb57600080fd5b5061050f61050a366004611dea565b610dcd565b60405161025693929190611f6e565b34801561052a57600080fd5b50610331610539366004611dea565b610e7b565b34801561054a57600080fd5b5061027f610559366004611fb6565b805160208183018101805160128252928201919093012091525460ff1681565b34801561058557600080fd5b50610331610594366004611feb565b610f53565b3480156105a557600080fd5b506103316105b4366004611dea565b611079565b6102af6105c736600461201f565b6111c1565b3480156105d857600080fd5b506102d9611266565b3480156105ed57600080fd5b5061063c6105fc366004611dea565b600f602052600090815260409020805460019091015460ff82169161010081046001600160a01b031691600160a81b90910467ffffffffffffffff169084565b6040805194151585526001600160a01b03909316602085015267ffffffffffffffff909116918301919091526060820152608001610256565b34801561068157600080fd5b50610331610690366004612059565b611275565b3480156106a157600080fd5b50600d54610306906201000090046001600160a01b031681565b6103316106c9366004612085565b6112e1565b3480156106da57600080fd5b506103316106e93660046120ed565b611322565b3480156106fa57600080fd5b506102d9610709366004611dea565b61140c565b34801561071a57600080fd5b5061024c7f000000000000000000000000000000000000000000000000000000000000006481565b34801561074e57600080fd5b5061033161075d366004612111565b6114a1565b34801561076e57600080fd5b5061027f61077d366004612158565b611716565b34801561078e57600080fd5b5061024c61079d366004611dea565b611744565b6000636ad56fd360e11b6001600160e01b03198316016107c457506001919050565b6107cd82611754565b92915050565b60145460009081906001600160a01b0316636d70f7ae336040516001600160e01b031960e084901b1681526001600160a01b039091166004820152602401602060405180830381865afa15801561082e573d6000803e3d6000fd5b505050506040513d601f19601f820116820180604052508101906108529190612182565b6108775760405162461bcd60e51b815260040161086e9061219f565b60405180910390fd5b60006108866002546000190190565b600d5490915061ffff16841115806108a25750600d5461ffff16155b6109065760405162461bcd60e51b815260206004820152602f60248201527f506879676974616c3a205175616e746974792073686f756c64206265206c657360448201526e1cc81d1a185b881b585e081b5a5b9d608a1b606482015260840161086e565b7f0000000000000000000000000000000000000000000000000000000000000064846109356002546000190190565b61093f91906121f6565b111561099c5760405162461bcd60e51b815260206004820152602660248201527f506879676974616c413a20457863656564696e67206d617820746f6b656e20736044820152657570706c792160d01b606482015260840161086e565b6109a685856117a2565b600d546109c3906201000090046001600160a01b03166001611275565b337f328ff68d0e66694e405c9f8fc906a346b345aa1f87ec216eaa82f2c654d0d34a6109f26002546000190190565b60408051918252602082018890520160405180910390a2949293505050565b606060048054610a2090612209565b80601f0160208091040260200160405190810160405280929190818152602001828054610a4c90612209565b8015610a995780601f10610a6e57610100808354040283529160200191610a99565b820191906000526020600020905b815481529060010190602001808311610a7c57829003601f168201915b5050505050905090565b6000610aae826117bc565b610ac257610ac26333d1c03960e21b61180a565b506000908152600860205260409020546001600160a01b031690565b610aea82826001611814565b5050565b6000610af9826118b7565b6001600160a01b039485169490915081168414610b1f57610b1f62a1148160e81b61180a565b60008281526008602052604090208054610b4b8187335b6001600160a01b039081169116811491141790565b610b6d57610b598633611716565b610b6d57610b6d632ce44b5f60e11b61180a565b8015610b7857600082555b6001600160a01b038681166000908152600760205260408082208054600019019055918716808252919020805460010190554260a01b17600160e11b17600085815260066020526040812091909155600160e11b84169003610c0a57600184016000818152600660205260408120549003610c08576002548114610c085760008181526006602052604090208490555b505b6001600160a01b0385168481887fddf252ad1be2c89b69c2b068fc378daa952ba7f163c4a11628f55a4df523b3ef600080a480600003610c5457610c54633a954ecd60e21b61180a565b50505050505050565b60008281526001602090815260408083208151808301909252546001600160a01b038116808352600160a01b9091046001600160601b0316928201929092528291610cd25750604080518082019091526000546001600160a01b0381168252600160a01b90046001600160601b031660208201525b602081015160009061271090610cf1906001600160601b031687612243565b610cfb919061225a565b915196919550909350505050565b60405133904780156108fc02916000818181858888f19350505050158015610d35573d6000803e3d6000fd5b50565b610d53838383604051806020016040528060008152506112e1565b505050565b610d35816001611958565b600b805460ff19166001179055600a610aea82826122ca565b60006107cd826118b7565b60006001600160a01b038216610da757610da76323d3ad8160e21b61180a565b506001600160a01b031660009081526007602052604090205467ffffffffffffffff1690565b60116020526000908152604090208054600182018054919291610def90612209565b80601f0160208091040260200160405190810160405280929190818152602001828054610e1b90612209565b8015610e685780601f10610e3d57610100808354040283529160200191610e68565b820191906000526020600020905b815481529060010190602001808311610e4b57829003601f168201915b5050506002909301549192505060ff1683565b6014546001600160a01b0316636d70f7ae336040516001600160e01b031960e084901b1681526001600160a01b039091166004820152602401602060405180830381865afa158015610ed1573d6000803e3d6000fd5b505050506040513d601f19601f82011682018060405250810190610ef59190612182565b610f115760405162461bcd60e51b815260040161086e9061219f565b600c81905560408051338152602081018390527fe4fe79a855bb953d57c217fb96867cc30beed4bf0ce6c2b1e7d2731ce74982ec91015b60405180910390a150565b8133610f5e82610d7c565b6001600160a01b03161480610fe857506014546001600160a01b0316636d70f7ae336040516001600160e01b031960e084901b1681526001600160a01b039091166004820152602401602060405180830381865afa158015610fc4573d6000803e3d6000fd5b505050506040513d601f19601f82011682018060405250810190610fe89190612182565b6110045760405162461bcd60e51b815260040161086e9061238a565b6000838152601160205260409020600201805483919060ff1916600183600481111561103257611032611f36565b02179055507f07c2cea5a1fbb990e885b52e8c51ce865a718fb8676e7169289a1c137d3d8b373384844260405161106c94939291906123d1565b60405180910390a1505050565b3361108382610d7c565b6001600160a01b0316146110e55760405162461bcd60e51b815260206004820152602360248201527f506879676974616c413a2055736572206973206e6f74206173736574206f776e60448201526265722160e81b606482015260840161086e565b60008181526011602052604081206002015460ff16600481111561110b5761110b611f36565b146111665760405162461bcd60e51b815260206004820152602560248201527f506879676974616c413a2041737365742063616e6e6f742062652064657374726044820152646f7965642160d81b606482015260840161086e565b611171816001611958565b600081815260016020526040812055807f2a5fd0bc4df8bf54012cb36761df3287ea7e3380367b791f6f6ad0506b500a0a336040516001600160a01b03909116815260200160405180910390a250565b60008060006111d36002546000190190565b6001600160a01b0385166000908152601360205260408120805492935087929091906112009084906121f6565b90915550611210905084866117a2565b836001600160a01b03167f328ff68d0e66694e405c9f8fc906a346b345aa1f87ec216eaa82f2c654d0d34a6112486002546000190190565b60408051918252602082018990520160405180910390a29492505050565b606060058054610a2090612209565b3360008181526009602090815260408083206001600160a01b03871680855290835292819020805460ff191686151590811790915590519081529192917f17307eab39ab6107e8899845ad3d59bd9653f200f220920489ca2b5937696c31910160405180910390a35050565b6112ec848484610aee565b6001600160a01b0383163b1561131c5761130884848484611a9a565b61131c5761131c6368d2bf6b60e11b61180a565b50505050565b6014546001600160a01b0316636d70f7ae336040516001600160e01b031960e084901b1681526001600160a01b039091166004820152602401602060405180830381865afa158015611378573d6000803e3d6000fd5b505050506040513d601f19601f8201168201806040525081019061139c9190612182565b6113b85760405162461bcd60e51b815260040161086e9061219f565b600d805461ffff191661ffff83161790557f681fea8fe1457e6e31ea5cec63ed1685758afb352bc523a85590601a4b3382f833604080516001600160a01b03909216825261ffff8416602083015201610f48565b6060611417826117bc565b61142b5761142b630a14c4b560e41b61180a565b6000611435611b7d565b600b5490915060ff16156114525761144b611b7d565b9392505050565b8051600003611470576040518060200160405280600081525061144b565b8061147a84611b8c565b60405160200161148b929190612404565b6040516020818303038152906040529392505050565b81336114ac82610d7c565b6001600160a01b0316148061153657506014546001600160a01b0316636d70f7ae336040516001600160e01b031960e084901b1681526001600160a01b039091166004820152602401602060405180830381865afa158015611512573d6000803e3d6000fd5b505050506040513d601f19601f820116820180604052508101906115369190612182565b6115525760405162461bcd60e51b815260040161086e9061238a565b61155b836117bc565b6115a75760405162461bcd60e51b815260206004820181905260248201527f506879676974616c413a20546f6b656e20646f6573206e6f7420657869737473604482015260640161086e565b6012826040516115b79190612433565b9081526040519081900360200190205460ff161580156115e35750600083815260116020526040902054155b61163d5760405162461bcd60e51b815260206004820152602560248201527f506879676974616c413a204e46432054616720697320616c72656164792073746044820152646f7265642160d81b606482015260840161086e565b60408051606081018252428152602080820185815260048385015260008781526011909252929020815181559151909190600182019061167d90826122ca565b50604082015160028201805460ff191660018360048111156116a1576116a1611f36565b021790555090505060016012836040516116bb9190612433565b908152604051908190036020019020805491151560ff199092169190911790557f35fbbba3856c29d63b934b93a99ab192c3c6b71eacad55451212d003f94eeaad6117033390565b84844260405161106c949392919061244f565b6001600160a01b03918216600090815260096020908152604080832093909416825291909152205460ff1690565b6000600c54826107cd9190612243565b60006301ffc9a760e01b6001600160e01b03198316148061178557506380ac58cd60e01b6001600160e01b03198316145b806107cd5750506001600160e01b031916635b5e139f60e01b1490565b610aea828260405180602001604052806000815250611bd0565b600081600111611805576002548210156118055760005b50600082815260066020526040812054908190036117fb576117f483612487565b92506117d3565b600160e01b161590505b919050565b8060005260046000fd5b600061181f83610d7c565b90508180156118375750336001600160a01b03821614155b1561185a576118468133611716565b61185a5761185a6367d9dca160e11b61180a565b60008381526008602052604080822080546001600160a01b0319166001600160a01b0388811691821790925591518693918516917f8c5be1e5ebec7d5bd14f71427d1e84f3dd0314c0f7b2291e5b200ac8c7c3b92591a450505050565b6000816001116119485750600081815260066020526040812054908190036119355760025482106118f2576118f2636f96cda160e11b61180a565b5b506000190160008181526006602052604090205480156118f357600160e01b811660000361192057919050565b611930636f96cda160e11b61180a565b6118f3565b600160e01b811660000361194857919050565b611805636f96cda160e11b61180a565b6000611963836118b7565b90508060008061198186600090815260086020526040902080549091565b9150915084156119b857611996818433610b36565b6119b8576119a48333611716565b6119b8576119b8632ce44b5f60e11b61180a565b80156119c357600082555b6001600160a01b038316600081815260076020526040902080546fffffffffffffffffffffffffffffffff0190554260a01b17600360e01b17600087815260066020526040812091909155600160e11b85169003611a5157600186016000818152600660205260408120549003611a4f576002548114611a4f5760008181526006602052604090208590555b505b60405186906000906001600160a01b038616907fddf252ad1be2c89b69c2b068fc378daa952ba7f163c4a11628f55a4df523b3ef908390a4505060038054600101905550505050565b604051630a85bd0160e11b81526000906001600160a01b0385169063150b7a0290611acf90339089908890889060040161249e565b6020604051808303816000875af1925050508015611b0a575060408051601f3d908101601f19168201909252611b07918101906124db565b60015b611b5f573d808015611b38576040519150601f19603f3d011682016040523d82523d6000602084013e611b3d565b606091505b508051600003611b5757611b576368d2bf6b60e11b61180a565b805181602001fd5b6001600160e01b031916630a85bd0160e11b1490505b949350505050565b6060600a8054610a2090612209565b606060a06040510180604052602081039150506000815280825b600183039250600a81066030018353600a900480611ba65750819003601f19909101908152919050565b611bda8383611c39565b6001600160a01b0383163b15610d53576002548281035b611c046000868380600101945086611a9a565b611c1857611c186368d2bf6b60e11b61180a565b818110611bf1578160025414611c3257611c32600061180a565b5050505050565b6002546000829003611c5557611c5563b562e8dd60e01b61180a565b60008181526006602090815260408083206001600160a01b0387164260a01b6001881460e11b17811790915580845260079092528220805468010000000000000001860201905590819003611cb357611cb3622e076360e81b61180a565b818301825b808360007fddf252ad1be2c89b69c2b068fc378daa952ba7f163c4a11628f55a4df523b3ef600080a4818160010191508103611cb8575060025550505050565b80356001600160a01b038116811461180557600080fd5b600060208284031215611d2157600080fd5b61144b82611cf8565b6001600160e01b031981168114610d3557600080fd5b600060208284031215611d5257600080fd5b813561144b81611d2a565b60008060408385031215611d7057600080fd5b611d7983611cf8565b946020939093013593505050565b60005b83811015611da2578181015183820152602001611d8a565b50506000910152565b60008151808452611dc3816020860160208601611d87565b601f01601f19169290920160200192915050565b60208152600061144b6020830184611dab565b600060208284031215611dfc57600080fd5b5035919050565b600080600060608486031215611e1857600080fd5b611e2184611cf8565b9250611e2f60208501611cf8565b9150604084013590509250925092565b60008060408385031215611e5257600080fd5b50508035926020909101359150565b634e487b7160e01b600052604160045260246000fd5b600067ffffffffffffffff80841115611e9257611e92611e61565b604051601f8501601f19908116603f01168101908282118183101715611eba57611eba611e61565b81604052809350858152868686011115611ed357600080fd5b858560208301376000602087830101525050509392505050565b600060208284031215611eff57600080fd5b813567ffffffffffffffff811115611f1657600080fd5b8201601f81018413611f2757600080fd5b611b7584823560208401611e77565b634e487b7160e01b600052602160045260246000fd5b60058110611f6a57634e487b7160e01b600052602160045260246000fd5b9052565b838152606060208201526000611f876060830185611dab565b9050611b756040830184611f4c565b600082601f830112611fa757600080fd5b61144b83833560208501611e77565b600060208284031215611fc857600080fd5b813567ffffffffffffffff811115611fdf57600080fd5b611b7584828501611f96565b60008060408385031215611ffe57600080fd5b8235915060208301356005811061201457600080fd5b809150509250929050565b6000806040838503121561203257600080fd5b8235915061204260208401611cf8565b90509250929050565b8015158114610d3557600080fd5b6000806040838503121561206c57600080fd5b61207583611cf8565b915060208301356120148161204b565b6000806000806080858703121561209b57600080fd5b6120a485611cf8565b93506120b260208601611cf8565b925060408501359150606085013567ffffffffffffffff8111156120d557600080fd5b6120e187828801611f96565b91505092959194509250565b6000602082840312156120ff57600080fd5b813561ffff8116811461144b57600080fd5b6000806040838503121561212457600080fd5b82359150602083013567ffffffffffffffff81111561214257600080fd5b61214e85828601611f96565b9150509250929050565b6000806040838503121561216b57600080fd5b61217483611cf8565b915061204260208401611cf8565b60006020828403121561219457600080fd5b815161144b8161204b565b60208082526021908201527f506879676974616c413a2055736572206973206e6f7420617574686f72697a656040820152601960fa1b606082015260800190565b634e487b7160e01b600052601160045260246000fd5b808201808211156107cd576107cd6121e0565b600181811c9082168061221d57607f821691505b60208210810361223d57634e487b7160e01b600052602260045260246000fd5b50919050565b80820281158282048414176107cd576107cd6121e0565b60008261227757634e487b7160e01b600052601260045260246000fd5b500490565b601f821115610d5357600081815260208120601f850160051c810160208610156122a35750805b601f850160051c820191505b818110156122c2578281556001016122af565b505050505050565b815167ffffffffffffffff8111156122e4576122e4611e61565b6122f8816122f28454612209565b8461227c565b602080601f83116001811461232d57600084156123155750858301515b600019600386901b1c1916600185901b1785556122c2565b600085815260208120601f198616915b8281101561235c5788860151825594840194600190910190840161233d565b508582101561237a5787850151600019600388901b60f8161c191681555b5050505050600190811b01905550565b60208082526027908201527f506879676974616c413a55736572206973206e6f74206f776e6572206f72206f6040820152663832b930ba37b960c91b606082015260800190565b6001600160a01b038516815260208101849052608081016123f56040830185611f4c565b82606083015295945050505050565b60008351612416818460208801611d87565b83519083019061242a818360208801611d87565b01949350505050565b60008251612445818460208701611d87565b9190910192915050565b60018060a01b03851681528360208201526080604082015260006124766080830185611dab565b905082606083015295945050505050565b600081612496576124966121e0565b506000190190565b6001600160a01b03858116825284166020820152604081018390526080606082018190526000906124d190830184611dab565b9695505050505050565b6000602082840312156124ed57600080fd5b815161144b81611d2a56fea2646970667358221220043e174623e2e8ca782cf9fb9d1e56e43c3ec3c5806c0bccab52501c251de0b264736f6c63430008140033",
	"linkReferences": {},
	"deployedLinkReferences": {}
}